:020000040800F2
:100000000000012055030008A5030008A50300080F
:10001000A5030008A5030008A503000800000000D0
:10002000000000000000000000000000A503000820
:100030000000000000000000A5030008A503000860
:10004000A5030008A5030008A5030008A5030008F0
:10005000A5030008A5030008A5030008A5030008E0
:10006000A5030008A5030008A5030008A5030008D0
:10007000A5030008A5030008A5030008A5030008C0
:10008000A5030008A5030008A5030008A5030008B0
:10009000A5030008A5030008A5030008A5030008A0
:1000A000A5030008A5030008A5030008A503000890
:1000B000A5030008A503000800000000A503000830
:1000C000A5030008A5030008A5030008A503000870
:1000D000A5030008A5030008A5030008A503000860
:1000E000A5030008A5030008A50300080000000000
:1000F000000000000000000000000000A503000850
:1001000000000000A503000800000000A50300088F
:10011000A503000800000000A5030008A5030008CF
:10012000A5030008A5030008A5030008A50300080F
:10013000A5030008A5030008A5030008A5030008FF
:10014000A5030008A5030008A5030008A5030008EF
:10015000A5030008A5030008A5030008A5030008DF
:10016000A5030008A5030008A5030008000000007F
:10017000A5030008A5030008A5030008A5030008BF
:10018000A503000800000000A5030008A50300085F
:04019000A5030008BB
:1001940010B5064C2378002B07D1054B002B02D059
:1001A4000448AFF300800123237010BD0400002035
:1001B40000000000A8030008044B10B5002B03D076
:1001C40003490448AFF3008010BDC046000000009E
:1001D40008000020A803000870B500260C4C0D4D43
:1001E400641BA410A64209D1002600F0DBF80A4CD7
:1001F4000A4D641BA410A64205D170BDB300EB5890
:1002040098470136EEE7B300EB5898470136F2E71A
:10021400C0030008C0030008C8030008C0030008A6
:1002240070477047034B10B5002B02D0024800F012
:1002340005F810BD0000000051020008002310B5AD
:1002440001001A00180000F015F810BD70B5074C35
:10025400074D641BA410002C02D100F0A9F870BD56
:10026400013CA300EB589847F5E7C046CC030008CF
:10027400C8030008F7B51C4F040038681600019342
:100284000091FFF7CDFF194A1368002B01D1184BD9
:1002940013605A6838681F2A04DDFFF7C2FF012083
:1002A4004042FEBD002C14D0910059180F0088372D
:1002B4003E6001271E0097408536FF367568FC3185
:1002C4003D437560019DCD60022C02D1B168394374
:1002D400B160511C5960023200999200D150FFF76D
:1002E400A0FF0020DDE7C04600000020240000201D
:1002F4002800002082B00023019302E0019B013317
:100304000193019A024B9A42F8DD02B07047C0464D
:100314009F86010010B50B4A136802210B4313603A
:10032400094B1A683E310A431A601A6840318A43FD
:100334001A60064A136808214B401360FFF7DAFF7E
:10034400F7E7C0464C10024000040048140400487B
:100354000D488546AFF300800C480D490D4A002333
:1003640002E0D458C4500433C4188C42F9D30A4A66
:100374000A4C002301E013600432A242FBD3FFF7CE
:100384002BFFFFF7C7FFFEE700000120000000205D
:1003940004000020CC03000804000020B801002061
:1003A400FEE70000F8B5C046F8BC08BC9E4670479E
:0C03B400F8B5C046F8BC08BC9E46704777
:0803C00029020008BD0100083C
:0403C8009501000893
:0403CC0020000020ED
:040000050800035597
:00000001FF
